:100400000C9476020C9480020C9480020C9480026E
:100410000C9480020C9480020C9480020C94800254
:100420000C9480020C9480020C9480020C94800244
:100430000C9480020C9480020C9480020C94800234
:100440000C9480020C9480020C9480020C94800224
:100450000C9480020C9480020C9480020C94800214
:100460000C9480020C9480020C9480020C94800204
:100470000C9480020C9480020C9480020C948002F4
:100480000C9480020C9480020C9480020C948002E4
:100490000C9480020C9480020C9480020C948002D4
:1004A0000C9480020C9480020C9480020C948002C4
:1004B0000C9480020C9480020C9480020C948002B4
:1004C0000C9480020C9480020C9480020C948002A4
:1004D0000C9480020C9480020C9480020C94800294
:1004E0000C9480020C9480020C94800211241FBE94
:1004F000CFEFCDBFDFE7DEBF0E9482020C949102F6
:100500000C940002469A90E489B1892789B92FE7B3
:1005100038E381E0215030408040E1F700C0000026
:06052000F3CFF894FFCFB9
:0400000300000400F5
:00000001FF
