S02B0000646973742F52656C656173652F70726F64756374696F6E2F617672313238646134382D636E616E6F3A
S11300001124469A4E9A579B0AC04E9882E08093D8
S1130010011060E072E080E090E00E94B8010E946C
S1130020190020E4A0E0B0E401C01D92A039B20799
S1130030E1F74198409AE0E2F8E083E896E08087AF
S1130040918783E087838681806C868310928F40BA
S1130050E12CF12CC0E2D8E000E010E16894222405
S113006023F86894332431F80F2EFAE0CF2EF0E40D
S1130070DF2EF02D0F2EFFE48F2EF6E49F2EFEE4EC
S1130080AF2EF9E4BF2EF02D412C512C320168948F
S113009042F890918F40943030F48C818823ECF7AF
S11300A0888180938A40923009F482C028F499238D
S11300B051F09130E1F155C1933009F4BEC0943050
S11300C009F444C14EC180918B4090918C40A09121
S11300D08D40B0918E40BA2FA92F982F8827209158
S11300E08A40822B80938B4090938C40A0938D40C8
S11300F0B0938E408F349644AE44B94409F031C174
S113010081E080938F40F60180829182A282B38243
S11301108EE090E48093004090930140409206402A
S11301205092074060920840709209401AC1E091D1
S11301300040F091014080918A408083809100408A
S113014090910140019680930040909301408091EA
S1130150064090910740A0910840B0910940019653
S1130160A11DB11D8093064090930740A0930840C1
S1130170B093094080389105A105B10509F0F1C09B
S113018030928F401092064010920740109208401F
S113019010920940F60184819581A681B7818093EC
S11301A0024090930340A0930440B0930540D9C00B
S11301B080918B4090918C40A0918D40B0918E4065
S11301C0BA2FA92F982F882720918A40822B8093B9
S11301D08B4090938C40A0938D40B0938E4040917F
S11301E006405091074060910840709109404F5F6C
S11301F05F4F6F4F7F4F409306405093074060938B
S113020008407093094080339845A445B34561F490
S113021023E020938F4010920640109207401092E2
S11302200840109209409DC0453051056105710593
S113023008F497C010928F4094C08091064090912A
S11302400740A0910840B09109409170AA27BB27AC
S1130250892B8A2B8B2B31F5F80182818370E1F78E
S1130260FDE9F4BF80930010F4BF20920010609168
S1130270024070910340809104409091054040E019
S113028050E00E94BC01F80182818370E1F7FDE92E
S1130290F4BF8093001089B120E4822789B9F4BFA8
S11302A0309200108091024090910340A09104404C
S11302B0B091054080FD04C0E0908A40F12C12C04A
S11302C080918A40F82A8091024090910340A09145
S11302D00440B0910540BC01CD016E7F9927A70170
S11302E00E94BC018091024090910340A09104407F
S11302F0B09105400196A11DB11D809302409093D9
S11303000340A0930440B09305408091064090912F
S11303100740A0910840B09109400196A11DB11D6C
S11303208093064090930740A0930840B0930940FF
S1130330F601408551856285738584179507A60764
S1130340B70779F484E080938F400BC08FE493EC7B
S11303500197F1F700C0000091E088ED84BF90930D
S1130360410090918A408C8185FFFDCF9A8391CE84
S1130370FB018BBF099408950A01FB018BBFE8952B
S107038011240895A3
S9030000FC
